{
  "_format": "hh-sol-artifact-1",
  "contractName": "ProtocolFeeRouter",
  "sourceName": "contracts/ProtocolFeeRouter.sol",
  "abi": [
    {
      "inputs": [
        {
          "internalType": "address",
          "name": "_paymentToken",
          "type": "address"
        },
        {
          "internalType": "address",
          "name": "_protocolTreasury",
          "type": "address"
        },
        {
          "internalType": "uint256",
          "name": "_protocolFeeBps",
          "type": "uint256"
        }
      ],
      "stateMutability": "nonpayable",
      "type": "constructor"
    },
    {
      "inputs": [
        {
          "internalType": "address",
          "name": "owner",
          "type": "address"
        }
      ],
      "name": "OwnableInvalidOwner",
      "type": "error"
    },
    {
      "inputs": [
        {
          "internalType": "address",
          "name": "account",
          "type": "address"
        }
      ],
      "name": "OwnableUnauthorizedAccount",
      "type": "error"
    },
    {
      "inputs": [],
      "name": "ReentrancyGuardReentrantCall",
      "type": "error"
    },
    {
      "inputs": [
        {
          "internalType": "address",
          "name": "token",
          "type": "address"
        }
      ],
      "name": "SafeERC20FailedOperation",
      "type": "error"
    },
    {
      "anonymous": false,
      "inputs": [
        {
          "indexed": true,
          "internalType": "address",
          "name": "previousOwner",
          "type": "address"
        },
        {
          "indexed": true,
          "internalType": "address",
          "name": "newOwner",
          "type": "address"
        }
      ],
      "name": "OwnershipTransferred",
      "type": "event"
    },
    {
      "anonymous": false,
      "inputs": [
        {
          "indexed": true,
          "internalType": "address",
          "name": "payer",
          "type": "address"
        },
        {
          "indexed": true,
          "internalType": "address",
          "name": "recipient",
          "type": "address"
        },
        {
          "indexed": false,
          "internalType": "uint256",
          "name": "grossAmount",
          "type": "uint256"
        },
        {
          "indexed": false,
          "internalType": "uint256",
          "name": "feeAmount",
          "type": "uint256"
        },
        {
          "indexed": false,
          "internalType": "uint256",
          "name": "netAmount",
          "type": "uint256"
        },
        {
          "indexed": false,
          "internalType": "string",
          "name": "referenceId",
          "type": "string"
        }
      ],
      "name": "PaymentProcessed",
      "type": "event"
    },
    {
      "anonymous": false,
      "inputs": [
        {
          "indexed": true,
          "internalType": "address",
          "name": "newTreasury",
          "type": "address"
        },
        {
          "indexed": false,
          "internalType": "uint256",
          "name": "newFeeBps",
          "type": "uint256"
        }
      ],
      "name": "ProtocolSettingsUpdated",
      "type": "event"
    },
    {
      "inputs": [],
      "name": "MAX_BPS",
      "outputs": [
        {
          "internalType": "uint256",
          "name": "",
          "type": "uint256"
        }
      ],
      "stateMutability": "view",
      "type": "function"
    },
    {
      "inputs": [],
      "name": "owner",
      "outputs": [
        {
          "internalType": "address",
          "name": "",
          "type": "address"
        }
      ],
      "stateMutability": "view",
      "type": "function"
    },
    {
      "inputs": [],
      "name": "paymentToken",
      "outputs": [
        {
          "internalType": "contract IERC20",
          "name": "",
          "type": "address"
        }
      ],
      "stateMutability": "view",
      "type": "function"
    },
    {
      "inputs": [
        {
          "internalType": "address",
          "name": "recipient",
          "type": "address"
        },
        {
          "internalType": "uint256",
          "name": "amount",
          "type": "uint256"
        },
        {
          "internalType": "string",
          "name": "referenceId",
          "type": "string"
        }
      ],
      "name": "processPayment",
      "outputs": [],
      "stateMutability": "nonpayable",
      "type": "function"
    },
    {
      "inputs": [],
      "name": "protocolFeeBps",
      "outputs": [
        {
          "internalType": "uint256",
          "name": "",
          "type": "uint256"
        }
      ],
      "stateMutability": "view",
      "type": "function"
    },
    {
      "inputs": [],
      "name": "protocolTreasury",
      "outputs": [
        {
          "internalType": "address",
          "name": "",
          "type": "address"
        }
      ],
      "stateMutability": "view",
      "type": "function"
    },
    {
      "inputs": [],
      "name": "renounceOwnership",
      "outputs": [],
      "stateMutability": "nonpayable",
      "type": "function"
    },
    {
      "inputs": [
        {
          "internalType": "address",
          "name": "newOwner",
          "type": "address"
        }
      ],
      "name": "transferOwnership",
      "outputs": [],
      "stateMutability": "nonpayable",
      "type": "function"
    },
    {
      "inputs": [
        {
          "internalType": "address",
          "name": "_protocolTreasury",
          "type": "address"
        },
        {
          "internalType": "uint256",
          "name": "_protocolFeeBps",
          "type": "uint256"
        }
      ],
      "name": "updateProtocolSettings",
      "outputs": [],
      "stateMutability": "nonpayable",
      "type": "function"
    }
  ],
  "bytecode": "0x60a060405234801561001057600080fd5b50604051610a30380380610a3083398101604081905261002f916101cf565b338061005657604051631e4fbdf760e01b8152600060048201526024015b60405180910390fd5b61005f81610163565b50600180556001600160a01b0383166100aa5760405162461bcd60e51b815260206004820152600d60248201526c24b73b30b634b2103a37b5b2b760991b604482015260640161004d565b6001600160a01b0382166100f35760405162461bcd60e51b815260206004820152601060248201526f496e76616c696420747265617375727960801b604482015260640161004d565b6105dc8111156101345760405162461bcd60e51b815260206004820152600c60248201526b08ccaca40e8dede40d0d2ced60a31b604482015260640161004d565b6001600160a01b03928316608052600280546001600160a01b031916929093169190911790915560035561020b565b600080546001600160a01b038381166001600160a01b0319831681178455604051919092169283917f8be0079c531659141344cd1fd0a4f28419497f9722a3daafe3b4186f6b6457e09190a35050565b80516001600160a01b03811681146101ca57600080fd5b919050565b6000806000606084860312156101e457600080fd5b6101ed846101b3565b92506101fb602085016101b3565b9150604084015190509250925092565b6080516107f661023a6000396000818160c5015281816102320152818161027101526102a701526107f66000f3fe608060405234801561001057600080fd5b50600436106100935760003560e01c8063715018a611610066578063715018a61461011b578063803db96d146101235780638da5cb5b14610136578063f2fde38b14610147578063fd967f471461015a57600080fd5b8063250cbca314610098578063298d35bf146100ad5780633013ce29146100c057806335659fb814610104575b600080fd5b6100ab6100a6366004610641565b610163565b005b6100ab6100bb3660046106c8565b610332565b6100e77f000000000000000000000000000000000000000000000000000000000000000081565b6040516001600160a01b0390911681526020015b60405180910390f35b61010d60035481565b6040519081526020016100fb565b6100ab61041e565b6002546100e7906001600160a01b031681565b6000546001600160a01b03166100e7565b6100ab6101553660046106f2565b610432565b61010d61271081565b61016b610470565b6001600160a01b0384166101ba5760405162461bcd60e51b8152602060048201526011602482015270125b9d985b1a59081c9958da5c1a595b9d607a1b60448201526064015b60405180910390fd5b600083116101f85760405162461bcd60e51b815260206004820152600b60248201526a16995c9bc8185b5bdd5b9d60aa1b60448201526064016101b1565b60006127106003548561020b919061072a565b6102159190610747565b905060006102238286610769565b905061025a6001600160a01b037f00000000000000000000000000000000000000000000000000000000000000001633308861049a565b811561029a5760025461029a906001600160a01b037f00000000000000000000000000000000000000000000000000000000000000008116911684610501565b6102ce6001600160a01b037f0000000000000000000000000000000000000000000000000000000000000000168783610501565b856001600160a01b0316336001600160a01b03167f9d9051311a59c548b69bbac10bdd609370d1dd8f5016ef4e8b79b49cdf6976d9878585898960405161031995949392919061077c565b60405180910390a3505061032c60018055565b50505050565b61033a610537565b6001600160a01b0382166103835760405162461bcd60e51b815260206004820152601060248201526f496e76616c696420747265617375727960801b60448201526064016101b1565b6105dc8111156103c45760405162461bcd60e51b815260206004820152600c60248201526b08ccaca40e8dede40d0d2ced60a31b60448201526064016101b1565b600280546001600160a01b0319166001600160a01b03841690811790915560038290556040518281527ff6ec3433c4663512b605f8b6c5b80608aedd8e09f5b8b60b7a969cbdef9fcb2c9060200160405180910390a25050565b610426610537565b6104306000610564565b565b61043a610537565b6001600160a01b03811661046457604051631e4fbdf760e01b8152600060048201526024016101b1565b61046d81610564565b50565b60026001540361049357604051633ee5aeb560e01b815260040160405180910390fd5b6002600155565b6040516001600160a01b03848116602483015283811660448301526064820183905261032c9186918216906323b872dd906084015b604051602081830303815290604052915060e01b6020820180516001600160e01b0383818316178352505050506105b4565b6040516001600160a01b0383811660248301526044820183905261053291859182169063a9059cbb906064016104cf565b505050565b6000546001600160a01b031633146104305760405163118cdaa760e01b81523360048201526024016101b1565b600080546001600160a01b038381166001600160a01b0319831681178455604051919092169283917f8be0079c531659141344cd1fd0a4f28419497f9722a3daafe3b4186f6b6457e09190a35050565b600080602060008451602086016000885af1806105d7576040513d6000823e3d81fd5b50506000513d915081156105ef5780600114156105fc565b6001600160a01b0384163b155b1561032c57604051635274afe760e01b81526001600160a01b03851660048201526024016101b1565b80356001600160a01b038116811461063c57600080fd5b919050565b6000806000806060858703121561065757600080fd5b61066085610625565b935060208501359250604085013567ffffffffffffffff8082111561068457600080fd5b818701915087601f83011261069857600080fd5b8135818111156106a757600080fd5b8860208285010111156106b957600080fd5b95989497505060200194505050565b600080604083850312156106db57600080fd5b6106e483610625565b946020939093013593505050565b60006020828403121561070457600080fd5b61070d82610625565b9392505050565b634e487b7160e01b600052601160045260246000fd5b808202811582820484141761074157610741610714565b92915050565b60008261076457634e487b7160e01b600052601260045260246000fd5b500490565b8181038181111561074157610741610714565b85815284602082015283604082015260806060820152816080820152818360a0830137600081830160a090810191909152601f909201601f1916010194935050505056fea2646970667358221220627c8a598c9c0007d40fa3e98891d88f6586dd7eeaccf420b4f6cce62ee49e9664736f6c63430008180033",
  "linkReferences": {},
  "deployedLinkReferences": {}
}