{
  "_format": "hh-sol-artifact-1",
  "contractName": "AgentTreasury",
  "sourceName": "contracts/AgentTreasury.sol",
  "abi": [
    {
      "inputs": [
        {
          "internalType": "address",
          "name": "_owner",
          "type": "address"
        }
      ],
      "stateMutability": "nonpayable",
      "type": "constructor"
    },
    {
      "inputs": [
        {
          "internalType": "address",
          "name": "owner",
          "type": "address"
        }
      ],
      "name": "OwnableInvalidOwner",
      "type": "error"
    },
    {
      "inputs": [
        {
          "internalType": "address",
          "name": "account",
          "type": "address"
        }
      ],
      "name": "OwnableUnauthorizedAccount",
      "type": "error"
    },
    {
      "inputs": [
        {
          "internalType": "address",
          "name": "token",
          "type": "address"
        }
      ],
      "name": "SafeERC20FailedOperation",
      "type": "error"
    },
    {
      "anonymous": false,
      "inputs": [
        {
          "indexed": true,
          "internalType": "address",
          "name": "target",
          "type": "address"
        },
        {
          "indexed": false,
          "internalType": "uint256",
          "name": "value",
          "type": "uint256"
        },
        {
          "indexed": false,
          "internalType": "bytes",
          "name": "data",
          "type": "bytes"
        }
      ],
      "name": "Execution",
      "type": "event"
    },
    {
      "anonymous": false,
      "inputs": [
        {
          "indexed": true,
          "internalType": "address",
          "name": "previousOwner",
          "type": "address"
        },
        {
          "indexed": true,
          "internalType": "address",
          "name": "newOwner",
          "type": "address"
        }
      ],
      "name": "OwnershipTransferred",
      "type": "event"
    },
    {
      "anonymous": false,
      "inputs": [
        {
          "indexed": true,
          "internalType": "address",
          "name": "sender",
          "type": "address"
        },
        {
          "indexed": false,
          "internalType": "uint256",
          "name": "amount",
          "type": "uint256"
        }
      ],
      "name": "Received",
      "type": "event"
    },
    {
      "inputs": [
        {
          "internalType": "address",
          "name": "token",
          "type": "address"
        },
        {
          "internalType": "address",
          "name": "spender",
          "type": "address"
        },
        {
          "internalType": "uint256",
          "name": "amount",
          "type": "uint256"
        }
      ],
      "name": "approveToken",
      "outputs": [],
      "stateMutability": "nonpayable",
      "type": "function"
    },
    {
      "inputs": [
        {
          "internalType": "address",
          "name": "target",
          "type": "address"
        },
        {
          "internalType": "uint256",
          "name": "value",
          "type": "uint256"
        },
        {
          "internalType": "bytes",
          "name": "data",
          "type": "bytes"
        }
      ],
      "name": "execute",
      "outputs": [
        {
          "internalType": "bytes",
          "name": "",
          "type": "bytes"
        }
      ],
      "stateMutability": "nonpayable",
      "type": "function"
    },
    {
      "inputs": [],
      "name": "owner",
      "outputs": [
        {
          "internalType": "address",
          "name": "",
          "type": "address"
        }
      ],
      "stateMutability": "view",
      "type": "function"
    },
    {
      "inputs": [],
      "name": "renounceOwnership",
      "outputs": [],
      "stateMutability": "nonpayable",
      "type": "function"
    },
    {
      "inputs": [
        {
          "internalType": "address",
          "name": "newOwner",
          "type": "address"
        }
      ],
      "name": "transferOwnership",
      "outputs": [],
      "stateMutability": "nonpayable",
      "type": "function"
    },
    {
      "stateMutability": "payable",
      "type": "receive"
    }
  ],
  "bytecode": "0x608060405234801561001057600080fd5b5060405161077638038061077683398101604081905261002f916100be565b806001600160a01b03811661005e57604051631e4fbdf760e01b81526000600482015260240160405180910390fd5b6100678161006e565b50506100ee565b600080546001600160a01b038381166001600160a01b0319831681178455604051919092169283917f8be0079c531659141344cd1fd0a4f28419497f9722a3daafe3b4186f6b6457e09190a35050565b6000602082840312156100d057600080fd5b81516001600160a01b03811681146100e757600080fd5b9392505050565b610679806100fd6000396000f3fe60806040526004361061004e5760003560e01c8063715018a61461008f5780638da5cb5b146100a6578063b61d27f6146100d3578063da3e339714610100578063f2fde38b1461012057600080fd5b3661008a5760405134815233907f88a5966d370b9919b20f3e2c13ff65706f196a4e32cc2c12bf57088f885258749060200160405180910390a2005b600080fd5b34801561009b57600080fd5b506100a4610140565b005b3480156100b257600080fd5b506000546040516001600160a01b0390911681526020015b60405180910390f35b3480156100df57600080fd5b506100f36100ee3660046104c9565b610154565b6040516100ca9190610550565b34801561010c57600080fd5b506100a461011b36600461059f565b610257565b34801561012c57600080fd5b506100a461013b3660046105db565b610278565b6101486102b6565b61015260006102e3565b565b606061015e6102b6565b600080866001600160a01b031686868660405161017c9291906105fd565b60006040518083038185875af1925050503d80600081146101b9576040519150601f19603f3d011682016040523d82523d6000602084013e6101be565b606091505b5091509150816102085760405162461bcd60e51b815260206004820152601060248201526f115e1958dd5d1a5bdb8819985a5b195960821b60448201526064015b60405180910390fd5b866001600160a01b03167f39f46e1dedea184144e3feaf4e595d78345d9a9d8b43da87912efbe4df3c8a318787876040516102459392919061060d565b60405180910390a29695505050505050565b61025f6102b6565b6102736001600160a01b0384168383610333565b505050565b6102806102b6565b6001600160a01b0381166102aa57604051631e4fbdf760e01b8152600060048201526024016101ff565b6102b3816102e3565b50565b6000546001600160a01b031633146101525760405163118cdaa760e01b81523360048201526024016101ff565b600080546001600160a01b038381166001600160a01b0319831681178455604051919092169283917f8be0079c531659141344cd1fd0a4f28419497f9722a3daafe3b4186f6b6457e09190a35050565b604080516001600160a01b038416602482015260448082018490528251808303909101815260649091019091526020810180516001600160e01b031663095ea7b360e01b17905261038484826103ed565b6103e757604080516001600160a01b038516602482015260006044808301919091528251808303909101815260649091019091526020810180516001600160e01b031663095ea7b360e01b1790526103dd90859061043c565b6103e7848261043c565b50505050565b6000806000806020600086516020880160008a5af192503d91506000519050828015610432575081156104235780600114610432565b6000866001600160a01b03163b115b9695505050505050565b600080602060008451602086016000885af18061045f576040513d6000823e3d81fd5b50506000513d91508115610477578060011415610484565b6001600160a01b0384163b155b156103e757604051635274afe760e01b81526001600160a01b03851660048201526024016101ff565b80356001600160a01b03811681146104c457600080fd5b919050565b600080600080606085870312156104df57600080fd5b6104e8856104ad565b935060208501359250604085013567ffffffffffffffff8082111561050c57600080fd5b818701915087601f83011261052057600080fd5b81358181111561052f57600080fd5b88602082850101111561054157600080fd5b95989497505060200194505050565b60006020808352835180602085015260005b8181101561057e57858101830151858201604001528201610562565b506000604082860101526040601f19601f8301168501019250505092915050565b6000806000606084860312156105b457600080fd5b6105bd846104ad565b92506105cb602085016104ad565b9150604084013590509250925092565b6000602082840312156105ed57600080fd5b6105f6826104ad565b9392505050565b8183823760009101908152919050565b83815260406020820152816040820152818360608301376000818301606090810191909152601f909201601f191601019291505056fea2646970667358221220cacb1def303488e0fc5ca89ce314dfa72d5f88758805fd45b27623ae7495a2dd64736f6c63430008180033",
  "linkReferences": {},
  "deployedLinkReferences": {}
}